{
  "_format": "hh-sol-artifact-1",
  "contractName": "NFT",
  "sourceName": "contracts/polygon/creaon/NFT.sol",
  "abi": [
    {
      "inputs": [
        {
          "internalType": "address",
          "name": "_marketplaceAddress",
          "type": "address"
        }
      ],
      "stateMutability": "nonpayable",
      "type": "constructor"
    },
    {
      "anonymous": false,
      "inputs": [
        {
          "indexed": true,
          "internalType": "address",
          "name": "owner",
          "type": "address"
        },
        {
          "indexed": true,
          "internalType": "address",
          "name": "approved",
          "type": "address"
        },
        {
          "indexed": true,
          "internalType": "uint256",
          "name": "tokenId",
          "type": "uint256"
        }
      ],
      "name": "Approval",
      "type": "event"
    },
    {
      "anonymous": false,
      "inputs": [
        {
          "indexed": true,
          "internalType": "address",
          "name": "owner",
          "type": "address"
        },
        {
          "indexed": true,
          "internalType": "address",
          "name": "operator",
          "type": "address"
        },
        {
          "indexed": false,
          "internalType": "bool",
          "name": "approved",
          "type": "bool"
        }
      ],
      "name": "ApprovalForAll",
      "type": "event"
    },
    {
      "anonymous": false,
      "inputs": [
        {
          "indexed": true,
          "internalType": "uint256",
          "name": "tokenId",
          "type": "uint256"
        },
        {
          "indexed": false,
          "internalType": "string",
          "name": "tokenURI",
          "type": "string"
        },
        {
          "indexed": false,
          "internalType": "address",
          "name": "marketplaceAddress",
          "type": "address"
        }
      ],
      "name": "TokenMinted",
      "type": "event"
    },
    {
      "anonymous": false,
      "inputs": [
        {
          "indexed": true,
          "internalType": "address",
          "name": "from",
          "type": "address"
        },
        {
          "indexed": true,
          "internalType": "address",
          "name": "to",
          "type": "address"
        },
        {
          "indexed": true,
          "internalType": "uint256",
          "name": "tokenId",
          "type": "uint256"
        }
      ],
      "name": "Transfer",
      "type": "event"
    },
    {
      "inputs": [
        {
          "internalType": "address",
          "name": "to",
          "type": "address"
        },
        {
          "internalType": "uint256",
          "name": "tokenId",
          "type": "uint256"
        }
      ],
      "name": "approve",
      "outputs": [],
      "stateMutability": "nonpayable",
      "type": "function"
    },
    {
      "inputs": [
        {
          "internalType": "address",
          "name": "owner",
          "type": "address"
        }
      ],
      "name": "balanceOf",
      "outputs": [
        {
          "internalType": "uint256",
          "name": "",
          "type": "uint256"
        }
      ],
      "stateMutability": "view",
      "type": "function"
    },
    {
      "inputs": [
        {
          "internalType": "uint256",
          "name": "tokenId",
          "type": "uint256"
        }
      ],
      "name": "getApproved",
      "outputs": [
        {
          "internalType": "address",
          "name": "",
          "type": "address"
        }
      ],
      "stateMutability": "view",
      "type": "function"
    },
    {
      "inputs": [
        {
          "internalType": "uint256",
          "name": "tokenId",
          "type": "uint256"
        }
      ],
      "name": "getTokenCreatorById",
      "outputs": [
        {
          "internalType": "address",
          "name": "",
          "type": "address"
        }
      ],
      "stateMutability": "view",
      "type": "function"
    },
    {
      "inputs": [],
      "name": "getTokensCreatedByMe",
      "outputs": [
        {
          "internalType": "uint256[]",
          "name": "",
          "type": "uint256[]"
        }
      ],
      "stateMutability": "view",
      "type": "function"
    },
    {
      "inputs": [],
      "name": "getTokensOwnedByMe",
      "outputs": [
        {
          "internalType": "uint256[]",
          "name": "",
          "type": "uint256[]"
        }
      ],
      "stateMutability": "view",
      "type": "function"
    },
    {
      "inputs": [
        {
          "internalType": "address",
          "name": "owner",
          "type": "address"
        },
        {
          "internalType": "address",
          "name": "operator",
          "type": "address"
        }
      ],
      "name": "isApprovedForAll",
      "outputs": [
        {
          "internalType": "bool",
          "name": "",
          "type": "bool"
        }
      ],
      "stateMutability": "view",
      "type": "function"
    },
    {
      "inputs": [
        {
          "internalType": "string",
          "name": "tokenURI",
          "type": "string"
        }
      ],
      "name": "mintToken",
      "outputs": [
        {
          "internalType": "uint256",
          "name": "",
          "type": "uint256"
        }
      ],
      "stateMutability": "nonpayable",
      "type": "function"
    },
    {
      "inputs": [],
      "name": "name",
      "outputs": [
        {
          "internalType": "string",
          "name": "",
          "type": "string"
        }
      ],
      "stateMutability": "view",
      "type": "function"
    },
    {
      "inputs": [
        {
          "internalType": "uint256",
          "name": "tokenId",
          "type": "uint256"
        }
      ],
      "name": "ownerOf",
      "outputs": [
        {
          "internalType": "address",
          "name": "",
          "type": "address"
        }
      ],
      "stateMutability": "view",
      "type": "function"
    },
    {
      "inputs": [
        {
          "internalType": "address",
          "name": "from",
          "type": "address"
        },
        {
          "internalType": "address",
          "name": "to",
          "type": "address"
        },
        {
          "internalType": "uint256",
          "name": "tokenId",
          "type": "uint256"
        }
      ],
      "name": "safeTransferFrom",
      "outputs": [],
      "stateMutability": "nonpayable",
      "type": "function"
    },
    {
      "inputs": [
        {
          "internalType": "address",
          "name": "from",
          "type": "address"
        },
        {
          "internalType": "address",
          "name": "to",
          "type": "address"
        },
        {
          "internalType": "uint256",
          "name": "tokenId",
          "type": "uint256"
        },
        {
          "internalType": "bytes",
          "name": "data",
          "type": "bytes"
        }
      ],
      "name": "safeTransferFrom",
      "outputs": [],
      "stateMutability": "nonpayable",
      "type": "function"
    },
    {
      "inputs": [
        {
          "internalType": "address",
          "name": "operator",
          "type": "address"
        },
        {
          "internalType": "bool",
          "name": "approved",
          "type": "bool"
        }
      ],
      "name": "setApprovalForAll",
      "outputs": [],
      "stateMutability": "nonpayable",
      "type": "function"
    },
    {
      "inputs": [
        {
          "internalType": "bytes4",
          "name": "interfaceId",
          "type": "bytes4"
        }
      ],
      "name": "supportsInterface",
      "outputs": [
        {
          "internalType": "bool",
          "name": "",
          "type": "bool"
        }
      ],
      "stateMutability": "view",
      "type": "function"
    },
    {
      "inputs": [],
      "name": "symbol",
      "outputs": [
        {
          "internalType": "string",
          "name": "",
          "type": "string"
        }
      ],
      "stateMutability": "view",
      "type": "function"
    },
    {
      "inputs": [
        {
          "internalType": "uint256",
          "name": "tokenId",
          "type": "uint256"
        }
      ],
      "name": "tokenURI",
      "outputs": [
        {
          "internalType": "string",
          "name": "",
          "type": "string"
        }
      ],
      "stateMutability": "view",
      "type": "function"
    },
    {
      "inputs": [
        {
          "internalType": "address",
          "name": "from",
          "type": "address"
        },
        {
          "internalType": "address",
          "name": "to",
          "type": "address"
        },
        {
          "internalType": "uint256",
          "name": "tokenId",
          "type": "uint256"
        }
      ],
      "name": "transferFrom",
      "outputs": [],
      "stateMutability": "nonpayable",
      "type": "function"
    }
  ],
  "bytecode": "0x60806040523480156200001157600080fd5b5060405162001b0e38038062001b0e833981016040819052620000349162000165565b604080518082018252600781526604d61726b4b6f760cc1b6020808301918252835180850190945260048452634d41524b60e01b9084015281519192916200007f91600091620000bf565b50805162000095906001906020840190620000bf565b5050600880546001600160a01b0319166001600160a01b03939093169290921790915550620001d2565b828054620000cd9062000195565b90600052602060002090601f016020900481019282620000f157600085556200013c565b82601f106200010c57805160ff19168380011785556200013c565b828001600101855582156200013c579182015b828111156200013c5782518255916020019190600101906200011f565b506200014a9291506200014e565b5090565b5b808211156200014a57600081556001016200014f565b60006020828403121562000177578081fd5b81516001600160a01b03811681146200018e578182fd5b9392505050565b600181811c90821680620001aa57607f821691505b60208210811415620001cc57634e487b7160e01b600052602260045260246000fd5b50919050565b61192c80620001e26000396000f3fe608060405234801561001057600080fd5b506004361061010b5760003560e01c80635ba37742116100a257806395d89b411161007157806395d89b4114610240578063a22cb46514610248578063b88d4fde1461025b578063c87b56dd1461026e578063e985e9c51461028157600080fd5b80635ba37742146101e95780636352211e146101f157806370a0823114610204578063867d33971461021757600080fd5b80630a989d9c116100de5780630a989d9c1461018d57806323b872dd146101a257806333eba49a146101b557806342842e0e146101d657600080fd5b806301ffc9a71461011057806306fdde0314610138578063081812fc1461014d578063095ea7b314610178575b600080fd5b61012361011e366004611576565b6102bd565b60405190151581526020015b60405180910390f35b61014061030f565b60405161012f91906116e8565b61016061015b3660046115f4565b6103a1565b6040516001600160a01b03909116815260200161012f565b61018b61018636600461154d565b6103c8565b005b6101956104e3565b60405161012f91906116a4565b61018b6101b036600461145f565b6105e4565b6101c86101c33660046115ae565b610615565b60405190815260200161012f565b61018b6101e436600461145f565b6106ca565b6101956106e5565b6101606101ff3660046115f4565b610838565b6101c8610212366004611413565b610898565b6101606102253660046115f4565b6000908152600960205260409020546001600160a01b031690565b61014061091e565b61018b610256366004611513565b61092d565b61018b61026936600461149a565b61093c565b61014061027c3660046115f4565b610974565b61012361028f36600461142d565b6001600160a01b03918216600090815260056020908152604080832093909416825291909152205460ff1690565b60006001600160e01b031982166380ac58cd60e01b14806102ee57506001600160e01b03198216635b5e139f60e01b145b8061030957506301ffc9a760e01b6001600160e01b03198316145b92915050565b60606000805461031e90611834565b80601f016020809104026020016040519081016040528092919081815260200182805461034a90611834565b80156103975780601f1061036c57610100808354040283529160200191610397565b820191906000526020600020905b81548152906001019060200180831161037a57829003601f168201915b5050505050905090565b60006103ac82610a85565b506000908152600460205260409020546001600160a01b031690565b60006103d382610838565b9050806001600160a01b0316836001600160a01b031614156104465760405162461bcd60e51b815260206004820152602160248201527f4552433732313a20617070726f76616c20746f2063757272656e74206f776e656044820152603960f91b60648201526084015b60405180910390fd5b336001600160a01b03821614806104625750610462813361028f565b6104d45760405162461bcd60e51b815260206004820152603e60248201527f4552433732313a20617070726f76652063616c6c6572206973206e6f7420746f60448201527f6b656e206f776e6572206e6f7220617070726f76656420666f7220616c6c0000606482015260840161043d565b6104de8383610ae7565b505050565b606060006104f060075490565b905060006104fd33610898565b905060008167ffffffffffffffff81111561052857634e487b7160e01b600052604160045260246000fd5b604051908082528060200260200182016040528015610551578160200160208202803683370190505b5090506000805b848110156105da57600061056d8260016117c5565b90503361057982610838565b6001600160a01b03161461058d57506105c8565b808484815181106105ae57634e487b7160e01b600052603260045260246000fd5b60209081029190910101526105c46001846117c5565b9250505b806105d28161186f565b915050610558565b5090949350505050565b6105ee3382610b55565b61060a5760405162461bcd60e51b815260040161043d90611777565b6104de838383610bd3565b6000610625600780546001019055565b600061063060075490565b905061063c3382610d6f565b600081815260096020526040902080546001600160a01b031916331790556106648184610eb1565b60085461067b906001600160a01b0316600161092d565b60085460405182917f9ef9d09a98563c827f651a028105395cc17f94ef23eb26b70d241439386a62f4916106bc9187916001600160a01b03909116906116fb565b60405180910390a292915050565b6104de8383836040518060200160405280600081525061093c565b606060006106f260075490565b90506000805b8281101561075557600061070d8260016117c5565b6000818152600960205260409020549091506001600160a01b031633146107345750610743565b61073f6001846117c5565b9250505b8061074d8161186f565b9150506106f8565b5060008167ffffffffffffffff81111561077f57634e487b7160e01b600052604160045260246000fd5b6040519080825280602002602001820160405280156107a8578160200160208202803683370190505b5090506000805b848110156105da5760006107c48260016117c5565b6000818152600960205260409020549091506001600160a01b031633146107eb5750610826565b8084848151811061080c57634e487b7160e01b600052603260045260246000fd5b60209081029190910101526108226001846117c5565b9250505b806108308161186f565b9150506107af565b6000818152600260205260408120546001600160a01b0316806103095760405162461bcd60e51b8152602060048201526018602482015277115490cdcc8c4e881a5b9d985b1a59081d1bdad95b88125160421b604482015260640161043d565b60006001600160a01b0382166109025760405162461bcd60e51b815260206004820152602960248201527f4552433732313a2061646472657373207a65726f206973206e6f7420612076616044820152683634b21037bbb732b960b91b606482015260840161043d565b506001600160a01b031660009081526003602052604090205490565b60606001805461031e90611834565b610938338383610f4b565b5050565b6109463383610b55565b6109625760405162461bcd60e51b815260040161043d90611777565b61096e8484848461101a565b50505050565b606061097f82610a85565b6000828152600660205260408120805461099890611834565b80601f01602080910402602001604051908101604052809291908181526020018280546109c490611834565b8015610a115780601f106109e657610100808354040283529160200191610a11565b820191906000526020600020905b8154815290600101906020018083116109f457829003601f168201915b505050505090506000610a2f60408051602081019091526000815290565b9050805160001415610a42575092915050565b815115610a74578082604051602001610a5c929190611638565b60405160208183030381529060405292505050919050565b610a7d8461104d565b949350505050565b6000818152600260205260409020546001600160a01b0316610ae45760405162461bcd60e51b8152602060048201526018602482015277115490cdcc8c4e881a5b9d985b1a59081d1bdad95b88125160421b604482015260640161043d565b50565b600081815260046020526040902080546001600160a01b0319166001600160a01b0384169081179091558190610b1c82610838565b6001600160a01b03167f8c5be1e5ebec7d5bd14f71427d1e84f3dd0314c0f7b2291e5b200ac8c7c3b92560405160405180910390a45050565b600080610b6183610838565b9050806001600160a01b0316846001600160a01b03161480610ba857506001600160a01b0380821660009081526005602090815260408083209388168352929052205460ff165b80610a7d5750836001600160a01b0316610bc1846103a1565b6001600160a01b031614949350505050565b826001600160a01b0316610be682610838565b6001600160a01b031614610c4a5760405162461bcd60e51b815260206004820152602560248201527f4552433732313a207472616e736665722066726f6d20696e636f72726563742060448201526437bbb732b960d91b606482015260840161043d565b6001600160a01b038216610cac5760405162461bcd60e51b8152602060048201526024808201527f4552433732313a207472616e7366657220746f20746865207a65726f206164646044820152637265737360e01b606482015260840161043d565b610cb7600082610ae7565b6001600160a01b0383166000908152600360205260408120805460019290610ce09084906117f1565b90915550506001600160a01b0382166000908152600360205260408120805460019290610d0e9084906117c5565b909155505060008181526002602052604080822080546001600160a01b0319166001600160a01b0386811691821790925591518493918716917fddf252ad1be2c89b69c2b068fc378daa952ba7f163c4a11628f55a4df523b3ef91a4505050565b6001600160a01b038216610dc55760405162461bcd60e51b815260206004820181905260248201527f4552433732313a206d696e7420746f20746865207a65726f2061646472657373604482015260640161043d565b6000818152600260205260409020546001600160a01b031615610e2a5760405162461bcd60e51b815260206004820152601c60248201527f4552433732313a20746f6b656e20616c7265616479206d696e74656400000000604482015260640161043d565b6001600160a01b0382166000908152600360205260408120805460019290610e539084906117c5565b909155505060008181526002602052604080822080546001600160a01b0319166001600160a01b03861690811790915590518392907fddf252ad1be2c89b69c2b068fc378daa952ba7f163c4a11628f55a4df523b3ef908290a45050565b6000828152600260205260409020546001600160a01b0316610f2c5760405162461bcd60e51b815260206004820152602e60248201527f45524337323155524953746f726167653a2055524920736574206f66206e6f6e60448201526d32bc34b9ba32b73a103a37b5b2b760911b606482015260840161043d565b600082815260066020908152604090912082516104de928401906112e8565b816001600160a01b0316836001600160a01b03161415610fad5760405162461bcd60e51b815260206004820152601960248201527f4552433732313a20617070726f766520746f2063616c6c657200000000000000604482015260640161043d565b6001600160a01b03838116600081815260056020908152604080832094871680845294825291829020805460ff191686151590811790915591519182527f17307eab39ab6107e8899845ad3d59bd9653f200f220920489ca2b5937696c31910160405180910390a3505050565b611025848484610bd3565b611031848484846110c1565b61096e5760405162461bcd60e51b815260040161043d90611725565b606061105882610a85565b600061106f60408051602081019091526000815290565b9050600081511161108f57604051806020016040528060008152506110ba565b80611099846111ce565b6040516020016110aa929190611638565b6040516020818303038152906040525b9392505050565b60006001600160a01b0384163b156111c357604051630a85bd0160e11b81526001600160a01b0385169063150b7a0290611105903390899088908890600401611667565b602060405180830381600087803b15801561111f57600080fd5b505af192505050801561114f575060408051601f3d908101601f1916820190925261114c91810190611592565b60015b6111a9573d80801561117d576040519150601f19603f3d011682016040523d82523d6000602084013e611182565b606091505b5080516111a15760405162461bcd60e51b815260040161043d90611725565b805181602001fd5b6001600160e01b031916630a85bd0160e11b149050610a7d565b506001949350505050565b6060816111f25750506040805180820190915260018152600360fc1b602082015290565b8160005b811561121c57806112068161186f565b91506112159050600a836117dd565b91506111f6565b60008167ffffffffffffffff81111561124557634e487b7160e01b600052604160045260246000fd5b6040519080825280601f01601f19166020018201604052801561126f576020820181803683370190505b5090505b8415610a7d576112846001836117f1565b9150611291600a8661188a565b61129c9060306117c5565b60f81b8183815181106112bf57634e487b7160e01b600052603260045260246000fd5b60200101906001600160f81b031916908160001a9053506112e1600a866117dd565b9450611273565b8280546112f490611834565b90600052602060002090601f016020900481019282611316576000855561135c565b82601f1061132f57805160ff191683800117855561135c565b8280016001018555821561135c579182015b8281111561135c578251825591602001919060010190611341565b5061136892915061136c565b5090565b5b80821115611368576000815560010161136d565b600067ffffffffffffffff8084111561139c5761139c6118ca565b604051601f8501601f19908116603f011681019082821181831017156113c4576113c46118ca565b816040528093508581528686860111156113dd57600080fd5b858560208301376000602087830101525050509392505050565b80356001600160a01b038116811461140e57600080fd5b919050565b600060208284031215611424578081fd5b6110ba826113f7565b6000806040838503121561143f578081fd5b611448836113f7565b9150611456602084016113f7565b90509250929050565b600080600060608486031215611473578081fd5b61147c846113f7565b925061148a602085016113f7565b9150604084013590509250925092565b600080600080608085870312156114af578081fd5b6114b8856113f7565b93506114c6602086016113f7565b925060408501359150606085013567ffffffffffffffff8111156114e8578182fd5b8501601f810187136114f8578182fd5b61150787823560208401611381565b91505092959194509250565b60008060408385031215611525578182fd5b61152e836113f7565b915060208301358015158114611542578182fd5b809150509250929050565b6000806040838503121561155f578182fd5b611568836113f7565b946020939093013593505050565b600060208284031215611587578081fd5b81356110ba816118e0565b6000602082840312156115a3578081fd5b81516110ba816118e0565b6000602082840312156115bf578081fd5b813567ffffffffffffffff8111156115d5578182fd5b8201601f810184136115e5578182fd5b610a7d84823560208401611381565b600060208284031215611605578081fd5b5035919050565b60008151808452611624816020860160208601611808565b601f01601f19169290920160200192915050565b6000835161164a818460208801611808565b83519083019061165e818360208801611808565b01949350505050565b6001600160a01b038581168252841660208201526040810183905260806060820181905260009061169a9083018461160c565b9695505050505050565b6020808252825182820181905260009190848201906040850190845b818110156116dc578351835292840192918401916001016116c0565b50909695505050505050565b6020815260006110ba602083018461160c565b60408152600061170e604083018561160c565b905060018060a01b03831660208301529392505050565b60208082526032908201527f4552433732313a207472616e7366657220746f206e6f6e20455243373231526560408201527131b2b4bb32b91034b6b83632b6b2b73a32b960711b606082015260800190565b6020808252602e908201527f4552433732313a2063616c6c6572206973206e6f7420746f6b656e206f776e6560408201526d1c881b9bdc88185c1c1c9bdd995960921b606082015260800190565b600082198211156117d8576117d861189e565b500190565b6000826117ec576117ec6118b4565b500490565b6000828210156118035761180361189e565b500390565b60005b8381101561182357818101518382015260200161180b565b8381111561096e5750506000910152565b600181811c9082168061184857607f821691505b6020821081141561186957634e487b7160e01b600052602260045260246000fd5b50919050565b60006000198214156118835761188361189e565b5060010190565b600082611899576118996118b4565b500690565b634e487b7160e01b600052601160045260246000fd5b634e487b7160e01b600052601260045260246000fd5b634e487b7160e01b600052604160045260246000fd5b6001600160e01b031981168114610ae457600080fdfea264697066735822122018cd62feeee73d8d345f6542ec4101723138ac698b9bab5d0366db44996b10b264736f6c63430008040033",
  "linkReferences": {},
  "deployedLinkReferences": {}
}